{
    "_format": "hh-sol-artifact-1",
    "contractName": "Multipool",
    "sourceName": "contracts/concentrator/contracts/Multipool.sol",
    "abi": [
        {
            "inputs": [
                {
                    "internalType": "uint8[2]",
                    "name": "_decimals",
                    "type": "uint8[2]"
                },
                {
                    "internalType": "address",
                    "name": "_token0",
                    "type": "address"
                },
                {
                    "internalType": "address",
                    "name": "_token1",
                    "type": "address"
                },
                {
                    "internalType": "address",
                    "name": "multisig",
                    "type": "address"
                },
                {
                    "internalType": "address",
                    "name": "_underlyingV3Factory",
                    "type": "address"
                },
                {
                    "internalType": "address",
                    "name": "_platformFeesVault",
                    "type": "address"
                },
                {
                    "internalType": "contract IMultiStrategy",
                    "name": "_strategy",
                    "type": "address"
                },
                {
                    "internalType": "contract IMultipoolToken",
                    "name": "_multipoolToken",
                    "type": "address"
                },
                {
                    "internalType": "uint24[]",
                    "name": "_fees",
                    "type": "uint24[]"
                }
            ],
            "stateMutability": "nonpayable",
            "type": "constructor"
        },
        {
            "inputs": [
                {
                    "internalType": "uint24",
                    "name": "fee",
                    "type": "uint24"
                }
            ],
            "name": "InvalidFee",
            "type": "error"
        },
        {
            "inputs": [],
            "name": "InvalidManaging",
            "type": "error"
        },
        {
            "inputs": [
                {
                    "internalType": "enum ErrLib.ErrorCode",
                    "name": "code",
                    "type": "uint8"
                }
            ],
            "name": "RevertErrorCode",
            "type": "error"
        },
        {
            "anonymous": false,
            "inputs": [
                {
                    "indexed": false,
                    "internalType": "address",
                    "name": "user",
                    "type": "address"
                },
                {
                    "indexed": false,
                    "internalType": "address",
                    "name": "recipient",
                    "type": "address"
                },
                {
                    "indexed": false,
                    "internalType": "uint256",
                    "name": "amount0",
                    "type": "uint256"
                },
                {
                    "indexed": false,
                    "internalType": "uint256",
                    "name": "amount1",
                    "type": "uint256"
                },
                {
                    "indexed": false,
                    "internalType": "uint256",
                    "name": "liquidity",
                    "type": "uint256"
                }
            ],
            "name": "Deposit",
            "type": "event"
        },
        {
            "anonymous": false,
            "inputs": [
                {
                    "indexed": false,
                    "internalType": "uint256",
                    "name": "usersFee0",
                    "type": "uint256"
                },
                {
                    "indexed": false,
                    "internalType": "uint256",
                    "name": "usersFee1",
                    "type": "uint256"
                },
                {
                    "indexed": false,
                    "internalType": "uint256",
                    "name": "protocolFee0",
                    "type": "uint256"
                },
                {
                    "indexed": false,
                    "internalType": "uint256",
                    "name": "protocolFee1",
                    "type": "uint256"
                }
            ],
            "name": "FeesGrowth",
            "type": "event"
        },
        {
            "anonymous": false,
            "inputs": [
                {
                    "indexed": true,
                    "internalType": "address",
                    "name": "previousOwner",
                    "type": "address"
                },
                {
                    "indexed": true,
                    "internalType": "address",
                    "name": "newOwner",
                    "type": "address"
                }
            ],
            "name": "OwnershipTransferred",
            "type": "event"
        },
        {
            "anonymous": false,
            "inputs": [
                {
                    "indexed": false,
                    "internalType": "enum Multipool.MANAGING",
                    "name": "managing",
                    "type": "uint8"
                },
                {
                    "indexed": false,
                    "internalType": "uint256",
                    "name": "param",
                    "type": "uint256"
                }
            ],
            "name": "ParamChanged",
            "type": "event"
        },
        {
            "anonymous": false,
            "inputs": [
                {
                    "indexed": false,
                    "internalType": "uint256",
                    "name": "reserve0Before",
                    "type": "uint256"
                },
                {
                    "indexed": false,
                    "internalType": "uint256",
                    "name": "reserve1Before",
                    "type": "uint256"
                },
                {
                    "indexed": false,
                    "internalType": "uint256",
                    "name": "reserve0",
                    "type": "uint256"
                },
                {
                    "indexed": false,
                    "internalType": "uint256",
                    "name": "reserve1",
                    "type": "uint256"
                },
                {
                    "indexed": false,
                    "internalType": "uint256",
                    "name": "swappedOut",
                    "type": "uint256"
                }
            ],
            "name": "Rebalance",
            "type": "event"
        },
        {
            "anonymous": false,
            "inputs": [
                {
                    "indexed": true,
                    "internalType": "address",
                    "name": "target",
                    "type": "address"
                },
                {
                    "indexed": false,
                    "internalType": "bool",
                    "name": "approved",
                    "type": "bool"
                }
            ],
            "name": "SwapTargetApproved",
            "type": "event"
        },
        {
            "anonymous": false,
            "inputs": [
                {
                    "indexed": false,
                    "internalType": "uint24",
                    "name": "fee",
                    "type": "uint24"
                },
                {
                    "indexed": false,
                    "internalType": "address",
                    "name": "poolAddress",
                    "type": "address"
                }
            ],
            "name": "TrustedPoolAdded",
            "type": "event"
        },
        {
            "anonymous": false,
            "inputs": [
                {
                    "indexed": false,
                    "internalType": "address",
                    "name": "user",
                    "type": "address"
                },
                {
                    "indexed": false,
                    "internalType": "address",
                    "name": "recipient",
                    "type": "address"
                },
                {
                    "indexed": false,
                    "internalType": "uint256",
                    "name": "amount0",
                    "type": "uint256"
                },
                {
                    "indexed": false,
                    "internalType": "uint256",
                    "name": "amount1",
                    "type": "uint256"
                },
                {
                    "indexed": false,
                    "internalType": "uint256",
                    "name": "liquidity",
                    "type": "uint256"
                }
            ],
            "name": "Withdraw",
            "type": "event"
        },
        {
            "inputs": [],
            "name": "MAX_TWAP_DEVIATION",
            "outputs": [
                {
                    "internalType": "uint256",
                    "name": "",
                    "type": "uint256"
                }
            ],
            "stateMutability": "view",
            "type": "function"
        },
        {
            "inputs": [],
            "name": "MAX_WEIGHT_UINT256",
            "outputs": [
                {
                    "internalType": "uint256",
                    "name": "",
                    "type": "uint256"
                }
            ],
            "stateMutability": "view",
            "type": "function"
        },
        {
            "inputs": [],
            "name": "MINIMUM_AMOUNT",
            "outputs": [
                {
                    "internalType": "uint256",
                    "name": "",
                    "type": "uint256"
                }
            ],
            "stateMutability": "view",
            "type": "function"
        },
        {
            "inputs": [],
            "name": "MINIMUM_LIQUIDITY",
            "outputs": [
                {
                    "internalType": "uint256",
                    "name": "",
                    "type": "uint256"
                }
            ],
            "stateMutability": "view",
            "type": "function"
        },
        {
            "inputs": [],
            "name": "MIN_OBSERVATION_CARDINALITY",
            "outputs": [
                {
                    "internalType": "uint16",
                    "name": "",
                    "type": "uint16"
                }
            ],
            "stateMutability": "view",
            "type": "function"
        },
        {
            "inputs": [
                {
                    "internalType": "uint24",
                    "name": "fee",
                    "type": "uint24"
                }
            ],
            "name": "addUnderlyingPool",
            "outputs": [],
            "stateMutability": "nonpayable",
            "type": "function"
        },
        {
            "inputs": [
                {
                    "internalType": "address",
                    "name": "",
                    "type": "address"
                }
            ],
            "name": "approvedTargets",
            "outputs": [
                {
                    "internalType": "bool",
                    "name": "",
                    "type": "bool"
                }
            ],
            "stateMutability": "view",
            "type": "function"
        },
        {
            "inputs": [],
            "name": "claimProtocolFees",
            "outputs": [],
            "stateMutability": "nonpayable",
            "type": "function"
        },
        {
            "inputs": [
                {
                    "internalType": "uint256",
                    "name": "",
                    "type": "uint256"
                }
            ],
            "name": "decimals",
            "outputs": [
                {
                    "internalType": "uint8",
                    "name": "",
                    "type": "uint8"
                }
            ],
            "stateMutability": "view",
            "type": "function"
        },
        {
            "inputs": [
                {
                    "internalType": "uint256",
                    "name": "amount0Desired",
                    "type": "uint256"
                },
                {
                    "internalType": "uint256",
                    "name": "amount1Desired",
                    "type": "uint256"
                },
                {
                    "internalType": "address",
                    "name": "recipient",
                    "type": "address"
                },
                {
                    "internalType": "uint256",
                    "name": "lpAmountMin",
                    "type": "uint256"
                }
            ],
            "name": "deposit",
            "outputs": [
                {
                    "internalType": "uint256",
                    "name": "lpAmount",
                    "type": "uint256"
                }
            ],
            "stateMutability": "nonpayable",
            "type": "function"
        },
        {
            "inputs": [],
            "name": "earn",
            "outputs": [],
            "stateMutability": "nonpayable",
            "type": "function"
        },
        {
            "inputs": [
                {
                    "internalType": "uint256",
                    "name": "",
                    "type": "uint256"
                }
            ],
            "name": "fees",
            "outputs": [
                {
                    "internalType": "uint24",
                    "name": "",
                    "type": "uint24"
                }
            ],
            "stateMutability": "view",
            "type": "function"
        },
        {
            "inputs": [],
            "name": "feesGrowthInsideLastX128",
            "outputs": [
                {
                    "internalType": "uint256",
                    "name": "accPerShare0",
                    "type": "uint256"
                },
                {
                    "internalType": "uint256",
                    "name": "accPerShare1",
                    "type": "uint256"
                },
                {
                    "internalType": "uint256",
                    "name": "protocolAccPerShare0",
                    "type": "uint256"
                },
                {
                    "internalType": "uint256",
                    "name": "protocolAccPerShare1",
                    "type": "uint256"
                }
            ],
            "stateMutability": "view",
            "type": "function"
        },
        {
            "inputs": [],
            "name": "getFeesLength",
            "outputs": [
                {
                    "internalType": "uint256",
                    "name": "",
                    "type": "uint256"
                }
            ],
            "stateMutability": "view",
            "type": "function"
        },
        {
            "inputs": [],
            "name": "getMultiPositionLength",
            "outputs": [
                {
                    "internalType": "uint256",
                    "name": "",
                    "type": "uint256"
                }
            ],
            "stateMutability": "view",
            "type": "function"
        },
        {
            "inputs": [],
            "name": "getReserves",
            "outputs": [
                {
                    "internalType": "uint256",
                    "name": "reserve0",
                    "type": "uint256"
                },
                {
                    "internalType": "uint256",
                    "name": "reserve1",
                    "type": "uint256"
                },
                {
                    "internalType": "uint256",
                    "name": "pendingFee0",
                    "type": "uint256"
                },
                {
                    "internalType": "uint256",
                    "name": "pendingFee1",
                    "type": "uint256"
                }
            ],
            "stateMutability": "view",
            "type": "function"
        },
        {
            "inputs": [],
            "name": "getSlots",
            "outputs": [
                {
                    "components": [
                        {
                            "internalType": "int24",
                            "name": "tick",
                            "type": "int24"
                        },
                        {
                            "internalType": "uint160",
                            "name": "currentSqrtRatioX96",
                            "type": "uint160"
                        }
                    ],
                    "internalType": "struct Slot0Data[]",
                    "name": "",
                    "type": "tuple[]"
                }
            ],
            "stateMutability": "view",
            "type": "function"
        },
        {
            "inputs": [
                {
                    "internalType": "bool",
                    "name": "zeroForOne",
                    "type": "bool"
                },
                {
                    "internalType": "uint256",
                    "name": "amountIn",
                    "type": "uint256"
                }
            ],
            "name": "getTimeWeightedAmountOut",
            "outputs": [
                {
                    "internalType": "uint256",
                    "name": "swappedOut",
                    "type": "uint256"
                }
            ],
            "stateMutability": "view",
            "type": "function"
        },
        {
            "inputs": [
                {
                    "internalType": "address",
                    "name": "_target",
                    "type": "address"
                },
                {
                    "internalType": "bool",
                    "name": "_approved",
                    "type": "bool"
                }
            ],
            "name": "manageSwapTarget",
            "outputs": [],
            "stateMutability": "nonpayable",
            "type": "function"
        },
        {
            "inputs": [],
            "name": "multiFactory",
            "outputs": [
                {
                    "internalType": "address",
                    "name": "",
                    "type": "address"
                }
            ],
            "stateMutability": "view",
            "type": "function"
        },
        {
            "inputs": [
                {
                    "internalType": "uint256",
                    "name": "",
                    "type": "uint256"
                }
            ],
            "name": "multiPosition",
            "outputs": [
                {
                    "internalType": "int24",
                    "name": "lowerTick",
                    "type": "int24"
                },
                {
                    "internalType": "int24",
                    "name": "upperTick",
                    "type": "int24"
                },
                {
                    "internalType": "uint24",
                    "name": "poolFeeAmt",
                    "type": "uint24"
                },
                {
                    "internalType": "uint256",
                    "name": "weight",
                    "type": "uint256"
                },
                {
                    "internalType": "address",
                    "name": "poolAddress",
                    "type": "address"
                },
                {
                    "internalType": "bytes32",
                    "name": "positionKey",
                    "type": "bytes32"
                }
            ],
            "stateMutability": "view",
            "type": "function"
        },
        {
            "inputs": [],
            "name": "multipoolToken",
            "outputs": [
                {
                    "internalType": "contract IMultipoolToken",
                    "name": "",
                    "type": "address"
                }
            ],
            "stateMutability": "view",
            "type": "function"
        },
        {
            "inputs": [],
            "name": "owner",
            "outputs": [
                {
                    "internalType": "address",
                    "name": "",
                    "type": "address"
                }
            ],
            "stateMutability": "view",
            "type": "function"
        },
        {
            "inputs": [],
            "name": "platformFeesVault",
            "outputs": [
                {
                    "internalType": "address",
                    "name": "",
                    "type": "address"
                }
            ],
            "stateMutability": "view",
            "type": "function"
        },
        {
            "inputs": [],
            "name": "protocolFeeWeight",
            "outputs": [
                {
                    "internalType": "uint256",
                    "name": "",
                    "type": "uint256"
                }
            ],
            "stateMutability": "view",
            "type": "function"
        },
        {
            "inputs": [],
            "name": "protocolFeeWeightMax",
            "outputs": [
                {
                    "internalType": "uint256",
                    "name": "",
                    "type": "uint256"
                }
            ],
            "stateMutability": "view",
            "type": "function"
        },
        {
            "inputs": [],
            "name": "protocolFees",
            "outputs": [
                {
                    "internalType": "uint256",
                    "name": "amount0",
                    "type": "uint256"
                },
                {
                    "internalType": "uint256",
                    "name": "amount1",
                    "type": "uint256"
                }
            ],
            "stateMutability": "view",
            "type": "function"
        },
        {
            "inputs": [],
            "name": "quotePoolAddress",
            "outputs": [
                {
                    "internalType": "address",
                    "name": "",
                    "type": "address"
                }
            ],
            "stateMutability": "view",
            "type": "function"
        },
        {
            "inputs": [
                {
                    "components": [
                        {
                            "internalType": "bool",
                            "name": "zeroForOne",
                            "type": "bool"
                        },
                        {
                            "internalType": "address",
                            "name": "swapTarget",
                            "type": "address"
                        },
                        {
                            "internalType": "uint256",
                            "name": "amountIn",
                            "type": "uint256"
                        },
                        {
                            "internalType": "bytes",
                            "name": "swapData",
                            "type": "bytes"
                        }
                    ],
                    "internalType": "struct Multipool.RebalanceParams",
                    "name": "params",
                    "type": "tuple"
                }
            ],
            "name": "rebalanceAll",
            "outputs": [],
            "stateMutability": "nonpayable",
            "type": "function"
        },
        {
            "inputs": [],
            "name": "renounceOwnership",
            "outputs": [],
            "stateMutability": "nonpayable",
            "type": "function"
        },
        {
            "inputs": [
                {
                    "internalType": "enum Multipool.MANAGING",
                    "name": "_managing",
                    "type": "uint8"
                },
                {
                    "internalType": "uint256",
                    "name": "_param",
                    "type": "uint256"
                }
            ],
            "name": "setParam",
            "outputs": [],
            "stateMutability": "nonpayable",
            "type": "function"
        },
        {
            "inputs": [
                {
                    "internalType": "address",
                    "name": "_quotePoolAddress",
                    "type": "address"
                }
            ],
            "name": "setQuotePoolAddress",
            "outputs": [],
            "stateMutability": "nonpayable",
            "type": "function"
        },
        {
            "inputs": [],
            "name": "snapshot",
            "outputs": [
                {
                    "internalType": "uint256",
                    "name": "reserve0",
                    "type": "uint256"
                },
                {
                    "internalType": "uint256",
                    "name": "reserve1",
                    "type": "uint256"
                },
                {
                    "components": [
                        {
                            "internalType": "uint256",
                            "name": "accPerShare0",
                            "type": "uint256"
                        },
                        {
                            "internalType": "uint256",
                            "name": "accPerShare1",
                            "type": "uint256"
                        },
                        {
                            "internalType": "uint256",
                            "name": "protocolAccPerShare0",
                            "type": "uint256"
                        },
                        {
                            "internalType": "uint256",
                            "name": "protocolAccPerShare1",
                            "type": "uint256"
                        }
                    ],
                    "internalType": "struct FeeGrowth",
                    "name": "feesGrow",
                    "type": "tuple"
                },
                {
                    "internalType": "uint256",
                    "name": "_totalSupply",
                    "type": "uint256"
                }
            ],
            "stateMutability": "nonpayable",
            "type": "function"
        },
        {
            "inputs": [],
            "name": "strategy",
            "outputs": [
                {
                    "internalType": "contract IMultiStrategy",
                    "name": "",
                    "type": "address"
                }
            ],
            "stateMutability": "view",
            "type": "function"
        },
        {
            "inputs": [],
            "name": "token0",
            "outputs": [
                {
                    "internalType": "address",
                    "name": "",
                    "type": "address"
                }
            ],
            "stateMutability": "view",
            "type": "function"
        },
        {
            "inputs": [],
            "name": "token1",
            "outputs": [
                {
                    "internalType": "address",
                    "name": "",
                    "type": "address"
                }
            ],
            "stateMutability": "view",
            "type": "function"
        },
        {
            "inputs": [
                {
                    "internalType": "address",
                    "name": "newOwner",
                    "type": "address"
                }
            ],
            "name": "transferOwnership",
            "outputs": [],
            "stateMutability": "nonpayable",
            "type": "function"
        },
        {
            "inputs": [],
            "name": "twapDeviation",
            "outputs": [
                {
                    "internalType": "uint256",
                    "name": "",
                    "type": "uint256"
                }
            ],
            "stateMutability": "view",
            "type": "function"
        },
        {
            "inputs": [],
            "name": "twapDuration",
            "outputs": [
                {
                    "internalType": "int32",
                    "name": "",
                    "type": "int32"
                }
            ],
            "stateMutability": "view",
            "type": "function"
        },
        {
            "inputs": [
                {
                    "internalType": "uint24",
                    "name": "",
                    "type": "uint24"
                }
            ],
            "name": "underlyingTrustedPools",
            "outputs": [
                {
                    "internalType": "int24",
                    "name": "tickSpacing",
                    "type": "int24"
                },
                {
                    "internalType": "address",
                    "name": "poolAddress",
                    "type": "address"
                }
            ],
            "stateMutability": "view",
            "type": "function"
        },
        {
            "inputs": [],
            "name": "underlyingV3Factory",
            "outputs": [
                {
                    "internalType": "contract IUniswapV3Factory",
                    "name": "",
                    "type": "address"
                }
            ],
            "stateMutability": "view",
            "type": "function"
        },
        {
            "inputs": [
                {
                    "internalType": "uint256",
                    "name": "amount0Owed",
                    "type": "uint256"
                },
                {
                    "internalType": "uint256",
                    "name": "amount1Owed",
                    "type": "uint256"
                },
                {
                    "internalType": "bytes",
                    "name": "data",
                    "type": "bytes"
                }
            ],
            "name": "uniswapV3MintCallback",
            "outputs": [],
            "stateMutability": "nonpayable",
            "type": "function"
        },
        {
            "inputs": [
                {
                    "internalType": "uint256",
                    "name": "lpAmount",
                    "type": "uint256"
                },
                {
                    "internalType": "uint256",
                    "name": "amount0OutMin",
                    "type": "uint256"
                },
                {
                    "internalType": "uint256",
                    "name": "amount1OutMin",
                    "type": "uint256"
                },
                {
                    "internalType": "address",
                    "name": "recipient",
                    "type": "address"
                }
            ],
            "name": "withdraw",
            "outputs": [
                {
                    "internalType": "uint256",
                    "name": "withdrawnAmount0",
                    "type": "uint256"
                },
                {
                    "internalType": "uint256",
                    "name": "withdrawnAmount1",
                    "type": "uint256"
                }
            ],
            "stateMutability": "nonpayable",
            "type": "function"
        }
    ],
    "bytecode": "0x6101606040526002805463ffffffff60a01b1916604b60a11b1790556107d0600581905560065560646007553480156200003857600080fd5b5060405162005be238038062005be28339810160408190526200005b9162000653565b6200006633620001d1565b6001600160a01b0384166080528462ffffff60005b83518110156200010d578162ffffff16848281518110620000a057620000a062000774565b602002602001015162ffffff161015620000d457838181518110620000c957620000c962000774565b602002602001015191505b62000104848281518110620000ed57620000ed62000774565b60200260200101518c8c866200022160201b60201c565b6001016200007b565b5062ffffff81166000908152600e6020908152604090912054600280546001600160a01b0319166001600160a01b036301000000909304831617905583811660a0523361010090815287821660c05286821660e0528c821661012052908b16610140528c5160038054938f015161ffff1990941660ff92831617939091169091029190911790556200019f88620001d1565b5050600180546001600160a01b0319166001600160a01b03979097169690961790955550620008bd9650505050505050565b600080546001600160a01b038381166001600160a01b0319831681178455604051919092169283917f8be0079c531659141344cd1fd0a4f28419497f9722a3daafe3b4186f6b6457e09190a35050565b604051630b4c774160e11b81526001600160a01b038481166004830152838116602483015262ffffff8616604483015260009190831690631698ee8290606401602060405180830381865afa1580156200027f573d6000803e3d6000fd5b505050506040513d601f19601f82011682018060405250810190620002a591906200078a565b62ffffff86166000908152600e602052604090209091506001600160a01b0382161580620002e357508054630100000090046001600160a01b031615155b156200030e57604051634d72eb2f60e11b815262ffffff871660048201526024015b60405180910390fd5b6000826001600160a01b0316633850c7bd6040518163ffffffff1660e01b815260040160e060405180830381865afa1580156200034f573d6000803e3d6000fd5b505050506040513d601f19601f82011682018060405250810190620003759190620007d7565b5050509350505050620003a0600a61ffff168261ffff16116024620004e060201b62001d881760201c565b826001600160a01b031663d0c93a7c6040518163ffffffff1660e01b8152600401602060405180830381865afa158015620003df573d6000803e3d6000fd5b505050506040513d601f19601f8201168201806040525081019062000405919062000876565b82546001600160a01b0385166301000000026001600160b81b031990911662ffffff9283161717835560048054600181018255600091909152600a8082047f8a35acfbc15ff81a39ae7d344fd709f28e8600b4aa8c65c6b64bfe7fe36bd19b0180548b8516929093066003026101000a91820291909302199091161790556040517f721e5106a122eec7d29477dff3c82724c57d8800a9c9e78b590a1e02d747feb690620004cf908990869062ffffff9290921682526001600160a01b0316602082015260400190565b60405180910390a150505050505050565b8162000503578060405163b88beff960e01b815260040162000305919062000894565b5050565b634e487b7160e01b600052604160045260246000fd5b604080519081016001600160401b038111828210171562000542576200054262000507565b60405290565b604051601f8201601f191681016001600160401b038111828210171562000573576200057362000507565b604052919050565b805160ff811681146200058d57600080fd5b919050565b6001600160a01b0381168114620005a857600080fd5b50565b80516200058d8162000592565b600082601f830112620005ca57600080fd5b815160206001600160401b03821115620005e857620005e862000507565b8160051b620005f982820162000548565b92835284810182019282810190878511156200061457600080fd5b83870192505b848310156200064857825162ffffff81168114620006385760008081fd5b825291830191908301906200061a565b979650505050505050565b60008060008060008060008060006101408a8c0312156200067357600080fd5b8a601f8b01126200068357600080fd5b6200068d6200051d565b8060408c018d811115620006a057600080fd5b8c5b81811015620006c557620006b6816200057b565b845260209384019301620006a2565b50819b50620006d481620005ab565b9a50505050620006e760608b01620005ab565b9650620006f760808b01620005ab565b95506200070760a08b01620005ab565b94506200071760c08b01620005ab565b93506200072760e08b01620005ab565b9250620007386101008b01620005ab565b6101208b01519092506001600160401b038111156200075657600080fd5b620007648c828d01620005b8565b9150509295985092959850929598565b634e487b7160e01b600052603260045260246000fd5b6000602082840312156200079d57600080fd5b8151620007aa8162000592565b9392505050565b8051600281900b81146200058d57600080fd5b805161ffff811681146200058d57600080fd5b600080600080600080600060e0888a031215620007f357600080fd5b8751620008008162000592565b96506200081060208901620007b1565b95506200082060408901620007c4565b94506200083060608901620007c4565b93506200084060808901620007c4565b92506200085060a089016200057b565b915060c088015180151581146200086657600080fd5b8091505092959891949750929550565b6000602082840312156200088957600080fd5b620007aa82620007b1565b6020810160268310620008b757634e487b7160e01b600052602160045260246000fd5b91905290565b60805160a05160c05160e05161010051610120516101405161521b620009c7600039600081816105fa0152818161074d01528181610b4a01528181610c3e015281816123f8015281816124280152612cad0152600081816102cc0152818161072c01528181610b7001528181610c6401528181612390015281816123c00152612bb0015260006106620152600081816106fc015281816109fe01528181610eb601528181610ff40152818161108a015281816112550152818161138c015281816114b8015281816117a8015281816119010152611a8f0152600081816105a50152612e3f015260008181610689015261076e0152600081816103aa01526107ef015261521b6000f3fe608060405234801561001057600080fd5b50600436106102695760003560e01c80638a9ad6ab11610151578063d3487997116100c3578063e78f094911610087578063e78f0949146106ab578063eff3ecdc146106be578063f2fde38b146106c6578063f73cf3cb146106d9578063fab2c469146106e2578063ff2fc497146106f757600080fd5b8063d34879971461062f578063d389800f14610642578063d6ec16dd1461064a578063db6146fc1461065d578063e5dca3401461068457600080fd5b8063a8c62e7611610115578063a8c62e76146105a0578063aaeb763d146105c7578063ba9a7a5614610348578063c1cca2b3146105e2578063d21220a7146105f5578063d331bef71461061c57600080fd5b80638a9ad6ab146104f75780638da5cb5b146105005780639711715a146105115780639779d1a61461055a5780639a97f9e01461058d57600080fd5b80633f47e662116101ea578063656d3e20116101ae578063656d3e2014610455578063672be07b146104685780636cd3b3fb1461047b5780636fc109b41461048e578063715018a6146104e65780638717416d146104ee57600080fd5b80633f47e6621461038057806343404434146103a55780634a7d0369146103cc5780634acc79ed146103d45780635272918a146103fb57600080fd5b80631ad8b03b116102315780631ad8b03b1461030f57806320eb310514610332578063257d9bb81461034857806326d89545146103515780632f52c6331461037857600080fd5b80630739b4341461026e5780630902f1ac146102835780630c1964a9146102b05780630dfe1681146102c75780631a60ca0e14610306575b600080fd5b61028161027c3660046143f1565b61071e565b005b61028b610795565b6040805194855260208501939093529183015260608201526080015b60405180910390f35b6102b960065481565b6040519081526020016102a7565b6102ee7f000000000000000000000000000000000000000000000000000000000000000081565b6040516001600160a01b0390911681526020016102a7565b6102b960075481565b600c54600d5461031d919082565b604080519283526020830191909152016102a7565b600854600954600a54600b5461028b9392919084565b6102b96103e881565b60025461036590600160a01b900460030b81565b60405160039190910b81526020016102a7565b6004546102b9565b61039361038e36600461440e565b6107bf565b60405160ff90911681526020016102a7565b6102ee7f000000000000000000000000000000000000000000000000000000000000000081565b6102816107e9565b6103e76103e236600461440e565b61082b565b60405162ffffff90911681526020016102a7565b61040e61040936600461440e565b610864565b60408051600297880b81529590960b602086015262ffffff9093169484019490945260608301526001600160a01b03909216608082015260a081019190915260c0016102a7565b61028161046336600461444a565b6108c2565b610281610476366004614483565b61093f565b6002546102ee906001600160a01b031681565b6104c461049c3660046143f1565b600e60205260009081526040902054600281900b90630100000090046001600160a01b031682565b6040805160029390930b83526001600160a01b039091166020830152016102a7565b610281610e70565b6102b96101f481565b6102b961271081565b6000546001600160a01b03166102ee565b610519610e84565b604080519485526020808601949094528251858201529282015160608086019190915292820151608085015291015160a083015260c082015260e0016102a7565b61057d6105683660046144be565b600f6020526000908152604090205460ff1681565b60405190151581526020016102a7565b61028161059b3660046144be565b610f97565b6102ee7f000000000000000000000000000000000000000000000000000000000000000081565b6105cf600a81565b60405161ffff90911681526020016102a7565b6102816105f03660046144db565b610fbd565b6102ee7f000000000000000000000000000000000000000000000000000000000000000081565b61031d61062a36600461450b565b611246565b61028161063d36600461454c565b61145e565b6102816114b4565b6102b96106583660046145cc565b611543565b6102ee7f000000000000000000000000000000000000000000000000000000000000000081565b6102ee7f000000000000000000000000000000000000000000000000000000000000000081565b6102b96106b93660046145ea565b6117a3565b6010546102b9565b6102816106d43660046144be565b611b4d565b6102b960055481565b6106ea611bc3565b6040516102a79190614629565b6102ee7f000000000000000000000000000000000000000000000000000000000000000081565b610726611dac565b610792817f00000000000000000000000000000000000000000000000000000000000000007f00000000000000000000000000000000000000000000000000000000000000007f0000000000000000000000000000000000000000000000000000000000000000611e06565b50565b60008060008060006107a5611bc3565b90506107b0816120a7565b92989197509550909350915050565b600381600281106107cf57600080fd5b60209182820401919006915054906101000a900460ff1681565b61081f307f0000000000000000000000000000000000000000000000000000000000000000600c60000154600c60010154612373565b6000600c819055600d55565b6004818154811061083b57600080fd5b90600052602060002090600a9182820401919006600302915054906101000a900462ffffff1681565b6010818154811061087457600080fd5b600091825260209091206004909102018054600182015460028084015460039094015483820b95506301000000840490910b93600160301b90930462ffffff16926001600160a01b03169086565b6108ca611dac565b6108e06001600160a01b0383161515601a611d88565b6001600160a01b0382166000818152600f6020908152604091829020805460ff191685151590811790915591519182527f432696143ce296f11e693a9a08596834a94106a822881775f0454536d728d262910160405180910390a25050565b600054600160a01b900460ff16156109835760405162461bcd60e51b8152602060048201526002602482015261524360f01b60448201526064015b60405180910390fd5b6000805460ff60a01b1916600160a01b1790556001546109af906001600160a01b03163314601b611d88565b6109ea600f60006109c660408501602086016144be565b6001600160a01b0316815260208101919091526040016000205460ff16601c611d88565b6109f261244f565b6109fa6107e9565b60007f00000000000000000000000000000000000000000000000000000000000000006001600160a01b03166318160ddd6040518163ffffffff1660e01b8152600401602060405180830381865afa158015610a5a573d6000803e3d6000fd5b505050506040513d601f19601f82011682018060405250810190610a7e9190614684565b9050610a8a818261272f565b50506000610a96612b6c565b90506000610aa2612c69565b9050604084013515610df457610b166323b872dd60e01b610b03610ac9606088018861469d565b8080601f016020809104026020016040519081016040528093929190818152602001838380828437600092019190915250612d5592505050565b6001600160e01b03191614156025611d88565b6000610b32610b2860208701876146eb565b8660400135611543565b9050610baa610b4460208701876146eb565b610b6e577f0000000000000000000000000000000000000000000000000000000000000000610b90565b7f00000000000000000000000000000000000000000000000000000000000000005b610ba060408801602089016144be565b8760400135612d66565b6000610bbc60408701602088016144be565b6001600160a01b0316610bd2606088018861469d565b604051610be0929190614708565b6000604051808303816000865af19150503d8060008114610c1d576040519150601f19603f3d011682016040523d82523d6000602084013e610c22565b606091505b50909150610c9b9050610c3860208801886146eb565b610c62577f0000000000000000000000000000000000000000000000000000000000000000610c84565b7f00000000000000000000000000000000000000000000000000000000000000005b610c946040890160208a016144be565b6000612d66565b610ca6816019611d88565b6000610cb0612b6c565b90506000610cbc612c69565b9050610cda6103e883118015610cd357506103e882115b6012611d88565b6000610ce960208a018a6146eb565b610cfc57610cf7828761472e565b610d06565b610d06838861472e565b9050610d1a8960400135821115601f611d88565b6000610d2960208b018b6146eb565b610d3c57610d37888561472e565b610d46565b610d46878461472e565b905085811015610d8157610d81610d5d828861472e565b61271060075489610d6e9190614747565b610d789190614774565b1015600f611d88565b6000610d8b612e38565b9050610d9985858c84612faa565b604080518a8152602081018a905290810186905260608101859052608081018890527f7a8df7c1c2ad2176c4af60b9a91ef6b31273a94f8ceb732d363ec080fd8e545b9060a00160405180910390a150505050505050610e5d565b6000610dfe612e38565b9050610e0c83838684612faa565b604080518481526020810184905290810184905260608101839052600060808201527f7a8df7c1c2ad2176c4af60b9a91ef6b31273a94f8ceb732d363ec080fd8e545b9060a00160405180910390a1505b50506000805460ff60a01b191690555050565b610e78611dac565b610e82600061335d565b565b600080610eb26040518060800160405280600081526020016000815260200160008152602001600081525090565b60007f00000000000000000000000000000000000000000000000000000000000000006001600160a01b03166318160ddd6040518163ffffffff1660e01b8152600401602060405180830381865afa158015610f12573d6000803e3d6000fd5b505050506040513d601f19601f82011682018060405250810190610f369190614684565b9050610f41816133ad565b6000610f4b611bc3565b9050610f56816120a7565b50506040805160808101825260085481526009546020820152600a5491810191909152600b54606082015291965094509250610f906107e9565b5090919293565b610f9f611dac565b600280546001600160a01b0319166001600160a01b03831617905550565b610fc5611dac565b6000826004811115610fd957610fd9614788565b0361105d57604051633f3e4c1160e01b8152600481018290527f00000000000000000000000000000000000000000000000000000000000000006001600160a01b031690633f3e4c1190602401600060405180830381600087803b15801561104057600080fd5b505af1158015611054573d6000803e3d6000fd5b50505050611209565b600182600481111561107157611071614788565b03611120576110866005548211156018611d88565b60007f00000000000000000000000000000000000000000000000000000000000000006001600160a01b03166318160ddd6040518163ffffffff1660e01b8152600401602060405180830381865afa1580156110e6573d6000803e3d6000fd5b505050506040513d601f19601f8201168201806040525081019061110a9190614684565b9050611115816133ad565b506006819055611209565b600282600481111561113457611134614788565b0361116657611146811515601a611d88565b600180546001600160a01b0319166001600160a01b038316179055611209565b600382600481111561117a5761117a614788565b036111bd5761119a600082118015611193575061ffff82105b6023611d88565b6002805463ffffffff60a01b1916600160a01b63ffffffff841602179055611209565b60048260048111156111d1576111d1614788565b036111f0576111e66101f4821115601e611d88565b6007819055611209565b60405163cf0f4e0b60e01b815260040160405180910390fd5b7f1ce285cd3facec51df9cfebc0def60552be204d42394beb0415cc271fbbb20be828260405161123a92919061479e565b60405180910390a15050565b60008061125161244f565b60007f00000000000000000000000000000000000000000000000000000000000000006001600160a01b03166318160ddd6040518163ffffffff1660e01b8152600401602060405180830381865afa1580156112b1573d6000803e3d6000fd5b505050506040513d601f19601f820116820180604052508101906112d59190614684565b90506112e1878261272f565b90935091508615611454578087846112f7612b6c565b611301919061472e565b61130b9190614747565b6113159190614774565b61131f90846147bc565b925080878361132c612c69565b611336919061472e565b6113409190614747565b61134a9190614774565b61135490836147bc565b91506113708684101580156113695750858310155b600f611d88565b604051632770a7eb60e21b8152336004820152602481018890527f00000000000000000000000000000000000000000000000000000000000000006001600160a01b031690639dc29fac90604401600060405180830381600087803b1580156113d857600080fd5b505af11580156113ec573d6000803e3d6000fd5b505050506113fc30858585612373565b604080513381526001600160a01b038616602082015290810184905260608101839052608081018890527febff2602b3f468259e1e99f613fed6691f3a6526effe6ef3e768ba7ae7a36c4f9060a00160405180910390a15b5094509492505050565b600061146c828401846143f1565b62ffffff81166000908152600e60205260409020549091506114a190630100000090046001600160a01b031633146010611d88565b6114ad30338787612373565b5050505050565b60007f00000000000000000000000000000000000000000000000000000000000000006001600160a01b03166318160ddd6040518163ffffffff1660e01b8152600401602060405180830381865afa158015611514573d6000803e3d6000fd5b505050506040513d601f19601f820116820180604052508101906115389190614684565b9050610792816133ad565b6040805160028082526060820183526000928392919060208301908036833750506002548251929350600160a01b900460030b91839150600090611589576115896147e5565b602002602001019063ffffffff16908163ffffffff16815250506000816001815181106115b8576115b86147e5565b63ffffffff9092166020928302919091019091015260025460405163883bdbfd60e01b81526000916001600160a01b03169063883bdbfd906115fe9085906004016147fb565b600060405180830381865afa15801561161b573d6000803e3d6000fd5b505050506040513d6000823e601f3d908101601f19168201604052611643919081019061496c565b50905060008160008151811061165b5761165b6147e5565b602002602001015182600181518110611676576116766147e5565b60200260200101516116889190614a2f565b6002549091506000906116a590600160a01b900460030b83614a5c565b905060008260060b1280156116d257506002546116cc90600160a01b900460030b83614a9a565b60060b15155b156116e557806116e181614abc565b9150505b60006116f0826133c3565b90506001600160801b036001600160a01b0382161161175057600061171e6001600160a01b03831680614747565b90508861173957611734600160c01b89836137e3565b611748565b6117488189600160c01b6137e3565b965050611798565b600061176a6001600160a01b03831680600160401b6137e3565b90508861178557611780600160801b89836137e3565b611794565b6117948189600160801b6137e3565b9650505b505050505092915050565b6000807f00000000000000000000000000000000000000000000000000000000000000006001600160a01b03166318160ddd6040518163ffffffff1660e01b8152600401602060405180830381865afa158015611804573d6000803e3d6000fd5b505050506040513d601f19601f820116820180604052508101906118289190614684565b9050606081600003611976576118646118496000546001600160a01b031690565b6001600160a01b0316336001600160a01b031614600c611d88565b6003546000906118789060ff166012614adf565b61188390600a614bdc565b61188d9089614747565b6003549091506000906118a990610100900460ff166012614adf565b6118b490600a614bdc565b6118be9089614747565b90506103e86118d56118d08385614747565b613897565b6118df919061472e565b6040516340c10f1960e01b815261dead60048201526103e860248201529095507f00000000000000000000000000000000000000000000000000000000000000006001600160a01b0316906340c10f1990604401600060405180830381600087803b15801561194d57600080fd5b505af1158015611961573d6000803e3d6000fd5b5050505061196d612e38565b92505050611a29565b61197e611bc3565b905060008061198c836120a7565b505091509150600160801b896119a29190614747565b98506119b2600160801b89614747565b97506119c089898484613a13565b909950975060006119d28a86856137e3565b905060006119e18a87856137e3565b90508082106119f057806119f2565b815b9650611a02600160801b8c614774565b9a50611a12600160801b8b614774565b9950611a22600160801b88614774565b9650505050505b611a43600084118015611a3c5750848410155b600d611d88565b611a4f33308989612373565b611a69611a5a612b6c565b611a62612c69565b8484612faa565b6040516340c10f1960e01b81526001600160a01b038681166004830152602482018590527f000000000000000000000000000000000000000000000000000000000000000016906340c10f1990604401600060405180830381600087803b158015611ad357600080fd5b505af1158015611ae7573d6000803e3d6000fd5b5050604080513381526001600160a01b03891660208201529081018a905260608101899052608081018690527f4e2ca0515ed1aef1395f66b5303bb5d6f1bf9d61a353fa53f73f8ac9973fa9f6925060a001905060405180910390a15050949350505050565b611b55611dac565b6001600160a01b038116611bba5760405162461bcd60e51b815260206004820152602660248201527f4f776e61626c653a206e6577206f776e657220697320746865207a65726f206160448201526564647265737360d01b606482015260840161097a565b6107928161335d565b6060611bcd61244f565b60105460008167ffffffffffffffff811115611beb57611beb6147cf565b604051908082528060200260200182016040528015611c3057816020015b6040805180820190915260008082526020820152815260200190600190039081611c095790505b50905060005b82811015611d8157600060108281548110611c5357611c536147e5565b60009182526020918290206040805160c08101825260049384029092018054600281810b855263010000008204810b96850196909652600160301b900462ffffff168383015260018101546060840152938401546001600160a01b03166080830181905260039094015460a08301528051633850c7bd60e01b81529051919450633850c7bd928181019260e0929091908290030181865afa158015611cfc573d6000803e3d6000fd5b505050506040513d601f19601f82011682018060405250810190611d209190614c0f565b5050875188935087925082109050611d3a57611d3a6147e5565b6020026020010151602001858581518110611d5757611d576147e5565b602090810291909101015160029290920b9091526001600160a01b03909116905250600101611c36565b5092915050565b81611da8578060405163b88beff960e01b815260040161097a9190614ca4565b5050565b6000546001600160a01b03163314610e825760405162461bcd60e51b815260206004820181905260248201527f4f776e61626c653a2063616c6c6572206973206e6f7420746865206f776e6572604482015260640161097a565b604051630b4c774160e11b81526001600160a01b038481166004830152838116602483015262ffffff8616604483015260009190831690631698ee8290606401602060405180830381865afa158015611e63573d6000803e3d6000fd5b505050506040513d601f19601f82011682018060405250810190611e879190614cbe565b62ffffff86166000908152600e602052604090209091506001600160a01b0382161580611ec457508054630100000090046001600160a01b031615155b15611ee957604051634d72eb2f60e11b815262ffffff8716600482015260240161097a565b6000826001600160a01b0316633850c7bd6040518163ffffffff1660e01b815260040160e060405180830381865afa158015611f29573d6000803e3d6000fd5b505050506040513d601f19601f82011682018060405250810190611f4d9190614c0f565b5050509350505050611f6b600a61ffff168261ffff16116024611d88565b826001600160a01b031663d0c93a7c6040518163ffffffff1660e01b8152600401602060405180830381865afa158015611fa9573d6000803e3d6000fd5b505050506040513d601f19601f82011682018060405250810190611fcd9190614cdb565b82546001600160a01b0385166301000000026001600160b81b031990911662ffffff9283161717835560048054600181018255600091909152600a8082047f8a35acfbc15ff81a39ae7d344fd709f28e8600b4aa8c65c6b64bfe7fe36bd19b0180548b8516929093066003026101000a91820291909302199091161790556040517f721e5106a122eec7d29477dff3c82724c57d8800a9c9e78b590a1e02d747feb690612096908990869062ffffff9290921682526001600160a01b0316602082015260400190565b60405180910390a150505050505050565b6000806000806120b5612b6c565b93506120bf612c69565b60105490935060005b8181101561230b576000601082815481106120e5576120e56147e5565b600091825260208083206040805160c08101825260049485029092018054600281810b855263010000008204810b95850195909552600160301b900462ffffff168383015260018101546060840152928301546001600160a01b03166080830181905260039093015460a08301819052905163514ea4bf60e01b815293840152935082918291829182919063514ea4bf9060240160a060405180830381865afa158015612196573d6000803e3d6000fd5b505050506040513d601f19601f820116820180604052508101906121ba9190614d0d565b9398509196509450925090506121d96001600160801b0383168d6147bc565b9b506121ee6001600160801b0382168c6147bc565b9a5050506001600160801b038316156122fc5760008061223986608001518e898151811061221e5761221e6147e5565b60200260200101516000015188600001518960200151613aa6565b909250905061225f61224b858461472e565b866001600160801b0316600160801b6137e3565b612272906001600160801b03168b6147bc565b995061228161224b848361472e565b612294906001600160801b03168a6147bc565b98506000806122da8f8a815181106122ae576122ae6147e5565b6020026020010151602001516122c78a600001516133c3565b6122d48b602001516133c3565b8a613cc8565b90925090506122e9828f6147bc565b9d506122f5818e6147bc565b9c50505050505b846001019450505050506120c8565b50600060065461271061231e919061472e565b905061271061232d8286614747565b6123379190614774565b93506127106123468285614747565b6123509190614774565b925061235c84876147bc565b955061236883866147bc565b945050509193509193565b6001600160a01b038416301482156123e75780156123bb576123b67f00000000000000000000000000000000000000000000000000000000000000008585613d63565b6123e7565b6123e77f0000000000000000000000000000000000000000000000000000000000000000868686613e35565b81156114ad5780156124235761241e7f00000000000000000000000000000000000000000000000000000000000000008584613d63565b6114ad565b6114ad7f0000000000000000000000000000000000000000000000000000000000000000868685613e35565b60408051600280825260608201835260009260208301908036833750506002548251929350600160a01b900460030b91839150600090612491576124916147e5565b602002602001019063ffffffff16908163ffffffff16815250506000816001815181106124c0576124c06147e5565b602002602001019063ffffffff16908163ffffffff168152505060005b600454811015611da8576000600e600060048481548110612500576125006147e5565b60009182526020808320600a8084049091015492066003026101000a90910462ffffff1683528201929092526040908101822054905163883bdbfd60e01b815263010000009091046001600160a01b03169250829063883bdbfd906125699087906004016147fb565b600060405180830381865afa158015612586573d6000803e3d6000fd5b505050506040513d6000823e601f3d908101601f191682016040526125ae919081019061496c565b5090506000816000815181106125c6576125c66147e5565b6020026020010151826001815181106125e1576125e16147e5565b60200260200101516125f39190614a2f565b60025490915060009061261090600160a01b900460030b83614a5c565b905060008260060b12801561263d575060025461263790600160a01b900460030b83614a9a565b60060b15155b15612650578061264c81614abc565b9150505b6000846001600160a01b0316633850c7bd6040518163ffffffff1660e01b815260040160e060405180830381865afa158015612690573d6000803e3d6000fd5b505050506040513d601f19601f820116820180604052508101906126b49190614c0f565b505050505091505060008260020b8260020b136126df576126d58284614d64565b62ffffff166126ef565b6126e98383614d64565b62ffffff165b905061271e6127106007548562ffffff1661270a9190614747565b6127149190614774565b8211156022611d88565b8660010196505050505050506124dd565b6000806000831161274257612742614d89565b6040805160c081018252600080825260208201819052918101829052606081018290526080810182905260a0810191909152601054600080805b83811015612b555760108181548110612797576127976147e5565b600091825260208083206040805160c08101825260049485029092018054600281810b855263010000008204810b95850195909552600160301b900462ffffff168383015260018101546060840152928301546001600160a01b03166080830181905260039093015460a08301819052905163514ea4bf60e01b81529384015297509063514ea4bf9060240160a060405180830381865afa158015612840573d6000803e3d6000fd5b505050506040513d601f19601f820116820180604052508101906128649190614d0d565b5050505090506000898b836001600160801b03166128829190614747565b61288c9190614774565b905060008088608001516001600160a01b031663514ea4bf8a60a001516040518263ffffffff1660e01b81526004016128c791815260200190565b60a060405180830381865afa1580156128e4573d6000803e3d6000fd5b505050506040513d601f19601f820116820180604052508101906129089190614d0d565b945094505050506000808a608001516001600160a01b031663a34123a78c600001518d60200151886040518463ffffffff1660e01b815260040161297093929190600293840b81529190920b60208201526001600160801b0391909116604082015260600190565b60408051808303816000875af115801561298e573d6000803e3d6000fd5b505050506040513d601f19601f820116820180604052508101906129b29190614d9f565b90925090506129c1828e6147bc565b9c506129cd818d6147bc565b9b506000808c608001516001600160a01b031663514ea4bf8e60a001516040518263ffffffff1660e01b8152600401612a0891815260200190565b60a060405180830381865afa158015612a25573d6000803e3d6000fd5b505050506040513d601f19601f82011682018060405250810190612a499190614d0d565b94509450505050856001600160801b031684836001600160801b0316612a6f919061472e565b612a79919061472e565b612a83908c6147bc565b9a50846001600160801b031683826001600160801b0316612aa4919061472e565b612aae919061472e565b612ab8908b6147bc565b9950505050505050505084608001516001600160a01b0316634f1eb3d830876000015188602001516001600160801b03806040518663ffffffff1660e01b8152600401612b09959493929190614dc3565b60408051808303816000875af1158015612b27573d6000803e3d6000fd5b505050506040513d601f19601f82011682018060405250810190612b4b9190614e00565b505060010161277c565b50612b61828289613f17565b505050509250929050565b604080513060248083019190915282518083039091018152604490910182526020810180516001600160e01b03166370a0823160e01b1790529051600091829182917f00000000000000000000000000000000000000000000000000000000000000006001600160a01b031691612be39190614e57565b600060405180830381855afa9150503d8060008114612c1e576040519150601f19603f3d011682016040523d82523d6000602084013e612c23565b606091505b5091509150818015612c3757506020815110155b612c4057600080fd5b600c548151612c589083016020908101908401614684565b612c62919061472e565b9250505090565b604080513060248083019190915282518083039091018152604490910182526020810180516001600160e01b03166370a0823160e01b1790529051600091829182917f00000000000000000000000000000000000000000000000000000000000000006001600160a01b031691612ce09190614e57565b600060405180830381855afa9150503d8060008114612d1b576040519150601f19603f3d011682016040523d82523d6000602084013e612d20565b606091505b5091509150818015612d3457506020815110155b612d3d57600080fd5b600d548151612c589083016020908101908401614684565b602001516001600160e01b03191690565b604080516001600160a01b038481166024830152604480830185905283518084039091018152606490920183526020820180516001600160e01b031663095ea7b360e01b1790529151600092839290871691612dc29190614e57565b6000604051808303816000865af19150503d8060008114612dff576040519150601f19603f3d011682016040523d82523d6000602084013e612e04565b606091505b50915091506114ad828015612e31575081511580612e31575081806020019051810190612e319190614e73565b6017611d88565b60606000807f00000000000000000000000000000000000000000000000000000000000000006001600160a01b03166385048a3e6040518163ffffffff1660e01b8152600401600060405180830381865afa158015612e9b573d6000803e3d6000fd5b505050506040513d6000823e601f3d908101601f19168201604052612ec39190810190614f62565b9092509050612ed46010600061437f565b60005b8151811015612fa2576010828281518110612ef457612ef46147e5565b6020908102919091018101518254600181810185556000948552938390208251600490920201805493830151604084015162ffffff908116600160301b0268ffffff0000000000001992821663010000000265ffffffffffff199097169190941617949094179390931617825560608101518284015560808101516002830180546001600160a01b039092166001600160a01b031990921691909117905560a0015160039091015501612ed7565b509092915050565b6010546040805160c081018252600080825260208201819052918101829052606081018290526080810182905260a081018290529091829182919060005b828110156133405760108181548110613003576130036147e5565b60009182526020918290206040805160c08101825260049093029091018054600281810b855263010000008204810b9585019590955262ffffff600160301b909104169183019190915260018101546060830152918201546001600160a01b0316608082015260039091015460a082015287519092506130a39088908390811061308f5761308f6147e5565b602002602001015160200151838c8c6140b2565b95506001600160801b038616156133385760008083608001516001600160a01b031663514ea4bf8560a001516040518263ffffffff1660e01b81526004016130ed91815260200190565b60a060405180830381865afa15801561310a573d6000803e3d6000fd5b505050506040513d601f19601f8201168201806040525081019061312e9190614d0d565b9450945050505083608001516001600160a01b0316633c8a7d8d30866000015187602001518c8960400151604051602001613174919062ffffff91909116815260200190565b6040516020818303038152906040526040518663ffffffff1660e01b81526004016131a3959493929190615048565b60408051808303816000875af11580156131c1573d6000803e3d6000fd5b505050506040513d601f19601f820116820180604052508101906131e59190614d9f565b505060008085608001516001600160a01b031663514ea4bf8760a001516040518263ffffffff1660e01b815260040161322091815260200190565b60a060405180830381865afa15801561323d573d6000803e3d6000fd5b505050506040513d601f19601f820116820180604052508101906132619190614d0d565b94509450505050838261327491906150ae565b613287906001600160801b03168a6147bc565b985061329383826150ae565b6132a6906001600160801b0316896147bc565b975085608001516001600160a01b0316634f1eb3d830886000015189602001516001600160801b03806040518663ffffffff1660e01b81526004016132ef959493929190614dc3565b60408051808303816000875af115801561330d573d6000803e3d6000fd5b505050506040513d601f19601f820116820180604052508101906133319190614e00565b5050505050505b600101612fe8565b50861561335257613352848489613f17565b505050505050505050565b600080546001600160a01b038381166001600160a01b0319831681178455604051919092169283917f8be0079c531659141344cd1fd0a4f28419497f9722a3daafe3b4186f6b6457e09190a35050565b8015610792576133be60008261272f565b505050565b60008060008360020b126133da578260020b6133e7565b8260020b6133e7906150ce565b90506133f6620d89e7196150ea565b60020b81111561342c5760405162461bcd60e51b81526020600482015260016024820152601560fa1b604482015260640161097a565b60008160011660000361344357600160801b613455565b6ffffcb933bd6fad37aa2d162d1a5940015b70ffffffffffffffffffffffffffffffffff169050600282161561349457608061348f826ffff97272373d413259a46990580e213a614747565b901c90505b60048216156134be5760806134b9826ffff2e50f5f656932ef12357cf3c7fdcc614747565b901c90505b60088216156134e85760806134e3826fffe5caca7e10e4e61c3624eaa0941cd0614747565b901c90505b601082161561351257608061350d826fffcb9843d60f6159c9db58835c926644614747565b901c90505b602082161561353c576080613537826fff973b41fa98c081472e6896dfb254c0614747565b901c90505b6040821615613566576080613561826fff2ea16466c96a3843ec78b326b52861614747565b901c90505b608082161561359057608061358b826ffe5dee046a99a2a811c461f1969c3053614747565b901c90505b6101008216156135bb5760806135b6826ffcbe86c7900a88aedcffc83b479aa3a4614747565b901c90505b6102008216156135e65760806135e1826ff987a7253ac413176f2b074cf7815e54614747565b901c90505b61040082161561361157608061360c826ff3392b0822b70005940c7a398e4b70f3614747565b901c90505b61080082161561363c576080613637826fe7159475a2c29b7443b29c7fa6e889d9614747565b901c90505b611000821615613667576080613662826fd097f3bdfd2022b8845ad8f792aa5825614747565b901c90505b61200082161561369257608061368d826fa9f746462d870fdf8a65dc1f90e061e5614747565b901c90505b6140008216156136bd5760806136b8826f70d869a156d2a1b890bb3df62baf32f7614747565b901c90505b6180008216156136e85760806136e3826f31be135f97d08fd981231505542fcfa6614747565b901c90505b6201000082161561371457608061370f826f09aa508b5b7a84e1c677de54f3e99bc9614747565b901c90505b6202000082161561373f57608061373a826e5d6af8dedb81196699c329225ee604614747565b901c90505b62040000821615613769576080613764826d2216e584f5fa1ea926041bedfe98614747565b901c90505b6208000082161561379157608061378c826b048a170391f7dc42444e8fa2614747565b901c90505b60008460020b13156137ac576137a981600019614774565b90505b6137bb6401000000008261510c565b156137c75760016137ca565b60005b6137db9060ff16602083901c6147bc565b949350505050565b600080806000198587098587029250828110838203039150508060000361381c576000841161381157600080fd5b508290049050613890565b80841161382857600080fd5b600084868809851960019081018716968790049682860381900495909211909303600082900391909104909201919091029190911760038402600290811880860282030280860282030280860282030280860282030280860282030280860290910302029150505b9392505050565b6000816000036138a957506000919050565b816001600160801b82106138c25760809190911c9060401b5b600160401b82106138d85760409190911c9060201b5b64010000000082106138ef5760209190911c9060101b5b6201000082106139045760109190911c9060081b5b61010082106139185760089190911c9060041b5b6010821061392b5760049190911c9060021b5b600882106139375760011b5b60016139438286614774565b61394d90836147bc565b901c9050600161395d8286614774565b61396790836147bc565b901c905060016139778286614774565b61398190836147bc565b901c905060016139918286614774565b61399b90836147bc565b901c905060016139ab8286614774565b6139b590836147bc565b901c905060016139c58286614774565b6139cf90836147bc565b901c905060016139df8286614774565b6139e990836147bc565b901c905060006139f98286614774565b9050808210613a085780613a0a565b815b95945050505050565b600080808085158015613a24575084155b15613a33575086905085613a7b565b6000613a40898888614111565b9050878111613a5457889250905080613a79565b6000613a6189888a614111565b905089811115613a7357613a73614d89565b92508791505b505b613a976103e883118015613a9057506103e882115b6020611d88565b90925090505b94509492505050565b60405163f30dba9360e01b8152600283900b60048201526000908190819081906001600160a01b0389169063f30dba939060240161010060405180830381865afa158015613af8573d6000803e3d6000fd5b505050506040513d601f19601f82011682018060405250810190613b1c9190615120565b505060405163f30dba9360e01b815260028c900b600482015293975091955060009450849350506001600160a01b038c169163f30dba93915060240161010060405180830381865afa158015613b76573d6000803e3d6000fd5b505050506040513d601f19601f82011682018060405250810190613b9a9190615120565b505050509350935050508760020b8960020b1215613bc15781840395508083039450613cbb565b8660020b8960020b1215613cb05760008a6001600160a01b031663f30583996040518163ffffffff1660e01b8152600401602060405180830381865afa158015613c0f573d6000803e3d6000fd5b505050506040513d601f19601f82011682018060405250810190613c339190614684565b905060008b6001600160a01b031663461413196040518163ffffffff1660e01b8152600401602060405180830381865afa158015613c75573d6000803e3d6000fd5b505050506040513d601f19601f82011682018060405250810190613c999190614684565b905083868303039750828582030396505050613cbb565b838203955082810394505b5050505094509492505050565b600080836001600160a01b0316856001600160a01b03161115613ce9579293925b846001600160a01b0316866001600160a01b031611613d1457613d0d858585614145565b9150613a9d565b836001600160a01b0316866001600160a01b03161015613d4d57613d39868585614145565b9150613d468587856141b8565b9050613a9d565b613d588585856141b8565b905094509492505050565b604080516001600160a01b038481166024830152604480830185905283518084039091018152606490920183526020820180516001600160e01b031663a9059cbb60e01b1790529151600092839290871691613dbf9190614e57565b6000604051808303816000865af19150503d8060008114613dfc576040519150601f19603f3d011682016040523d82523d6000602084013e613e01565b606091505b50915091506114ad828015613e2e575081511580613e2e575081806020019051810190613e2e9190614e73565b6015611d88565b604080516001600160a01b0385811660248301528481166044830152606480830185905283518084039091018152608490920183526020820180516001600160e01b03166323b872dd60e01b1790529151600092839290881691613e999190614e57565b6000604051808303816000865af19150503d8060008114613ed6576040519150601f19603f3d011682016040523d82523d6000602084013e613edb565b606091505b5091509150613f0f828015613f08575081511580613f08575081806020019051810190613f089190614e73565b6016611d88565b505050505050565b6000600654612710613f29919061472e565b90506000612710613f3a8387614747565b613f449190614774565b90506000612710613f558487614747565b613f5f9190614774565b90506000613f6d838861472e565b90506000613f7b838861472e565b9050613f8c84600160801b886137e3565b60088054600090613f9e9084906147bc565b90915550613fb3905083600160801b886137e3565b60098054600090613fc59084906147bc565b90915550613fda905082600160801b886137e3565b600a8054600090613fec9084906147bc565b90915550614001905081600160801b886137e3565b600b80546000906140139084906147bc565b9091555050600c805483919060009061402d9084906147bc565b9091555050600d80548291906000906140479084906147bc565b90915550508715158061405a5750600087115b156140a8576040805185815260208101859052908101839052606081018290527f9cec705650c2f9d1546ab401fbcdd49745fd8f2654e15d3c4d8a7575bb6e1d9f9060800160405180910390a15b5050505050505050565b6000613a0a856140c586600001516133c3565b6140d287602001516133c3565b6127108860600151886140e59190614747565b6140ef9190614774565b6127108960600151886141029190614747565b61410c9190614774565b614202565b6000614121600085116011611d88565b61413a600084118015610cd35750600083116012611d88565b6137db8483856137e3565b6000826001600160a01b0316846001600160a01b03161115614165579192915b6001600160a01b0384166141ae6fffffffffffffffffffffffffffffffff60601b606085901b1661419687876151c5565b6001600160a01b0316866001600160a01b03166137e3565b6137db9190614774565b6000826001600160a01b0316846001600160a01b031611156141d8579192915b6137db6001600160801b0383166141ef86866151c5565b6001600160a01b0316600160601b6137e3565b6000836001600160a01b0316856001600160a01b03161115614222579293925b846001600160a01b0316866001600160a01b03161161424d576142468585856142c4565b9050613a0a565b836001600160a01b0316866001600160a01b031610156142af5760006142748786866142c4565b9050600061428387898661432e565b9050806001600160801b0316826001600160801b0316106142a457806142a6565b815b92505050613a0a565b6142ba85858461432e565b9695505050505050565b6000826001600160a01b0316846001600160a01b031611156142e4579192915b6000614307856001600160a01b0316856001600160a01b0316600160601b6137e3565b9050613a0a614329848361431b89896151c5565b6001600160a01b03166137e3565b614364565b6000826001600160a01b0316846001600160a01b0316111561434e579192915b6137db61432983600160601b61431b88886151c5565b806001600160801b038116811461437a57600080fd5b919050565b508054600082556004029060005260206000209081019061079291905b808211156143dc57805468ffffffffffffffffff191681556000600182018190556002820180546001600160a01b0319169055600382015560040161439c565b5090565b62ffffff8116811461079257600080fd5b60006020828403121561440357600080fd5b8135613890816143e0565b60006020828403121561442057600080fd5b5035919050565b6001600160a01b038116811461079257600080fd5b801515811461079257600080fd5b6000806040838503121561445d57600080fd5b823561446881614427565b915060208301356144788161443c565b809150509250929050565b60006020828403121561449557600080fd5b813567ffffffffffffffff8111156144ac57600080fd5b82016080818503121561389057600080fd5b6000602082840312156144d057600080fd5b813561389081614427565b600080604083850312156144ee57600080fd5b8235600581106144fd57600080fd5b946020939093013593505050565b6000806000806080858703121561452157600080fd5b843593506020850135925060408501359150606085013561454181614427565b939692955090935050565b6000806000806060858703121561456257600080fd5b8435935060208501359250604085013567ffffffffffffffff8082111561458857600080fd5b818701915087601f83011261459c57600080fd5b8135818111156145ab57600080fd5b8860208285010111156145bd57600080fd5b95989497505060200194505050565b600080604083850312156145df57600080fd5b82356144fd8161443c565b6000806000806080858703121561460057600080fd5b8435935060208501359250604085013561461981614427565b9396929550929360600135925050565b602080825282518282018190526000919060409081850190868401855b82811015614677578151805160020b85528601516001600160a01b0316868501529284019290850190600101614646565b5091979650505050505050565b60006020828403121561469657600080fd5b5051919050565b6000808335601e198436030181126146b457600080fd5b83018035915067ffffffffffffffff8211156146cf57600080fd5b6020019150368190038213156146e457600080fd5b9250929050565b6000602082840312156146fd57600080fd5b81356138908161443c565b8183823760009101908152919050565b634e487b7160e01b600052601160045260246000fd5b8181038181111561474157614741614718565b92915050565b808202811582820484141761474157614741614718565b634e487b7160e01b600052601260045260246000fd5b6000826147835761478361475e565b500490565b634e487b7160e01b600052602160045260246000fd5b60408101600584106147b2576147b2614788565b9281526020015290565b8082018082111561474157614741614718565b634e487b7160e01b600052604160045260246000fd5b634e487b7160e01b600052603260045260246000fd5b6020808252825182820181905260009190848201906040850190845b8181101561483957835163ffffffff1683529284019291840191600101614817565b50909695505050505050565b60405160c0810167ffffffffffffffff81118282101715614868576148686147cf565b60405290565b6040805190810167ffffffffffffffff81118282101715614868576148686147cf565b604051601f8201601f1916810167ffffffffffffffff811182821017156148ba576148ba6147cf565b604052919050565b600067ffffffffffffffff8211156148dc576148dc6147cf565b5060051b60200190565b8051600681900b811461437a57600080fd5b600082601f83011261490957600080fd5b8151602061491e614919836148c2565b614891565b82815260059290921b8401810191818101908684111561493d57600080fd5b8286015b8481101561496157805161495481614427565b8352918301918301614941565b509695505050505050565b6000806040838503121561497f57600080fd5b825167ffffffffffffffff8082111561499757600080fd5b818501915085601f8301126149ab57600080fd5b815160206149bb614919836148c2565b82815260059290921b840181019181810190898411156149da57600080fd5b948201945b838610156149ff576149f0866148e6565b825294820194908201906149df565b91880151919650909350505080821115614a1857600080fd5b50614a25858286016148f8565b9150509250929050565b600682810b9082900b03667fffffffffffff198112667fffffffffffff8213171561474157614741614718565b60008160060b8360060b80614a7357614a7361475e565b667fffffffffffff19821460001982141615614a9157614a91614718565b90059392505050565b60008260060b80614aad57614aad61475e565b808360060b0791505092915050565b60008160020b627fffff198103614ad557614ad5614718565b6000190192915050565b60ff828116828216039081111561474157614741614718565b600181815b80851115614b33578160001904821115614b1957614b19614718565b80851615614b2657918102915b93841c9390800290614afd565b509250929050565b600082614b4a57506001614741565b81614b5757506000614741565b8160018114614b6d5760028114614b7757614b93565b6001915050614741565b60ff841115614b8857614b88614718565b50506001821b614741565b5060208310610133831016604e8410600b8410161715614bb6575081810a614741565b614bc08383614af8565b8060001904821115614bd457614bd4614718565b029392505050565b600061389060ff841683614b3b565b8051600281900b811461437a57600080fd5b805161ffff8116811461437a57600080fd5b600080600080600080600060e0888a031215614c2a57600080fd5b8751614c3581614427565b9650614c4360208901614beb565b9550614c5160408901614bfd565b9450614c5f60608901614bfd565b9350614c6d60808901614bfd565b925060a088015160ff81168114614c8357600080fd5b60c0890151909250614c948161443c565b8091505092959891949750929550565b6020810160268310614cb857614cb8614788565b91905290565b600060208284031215614cd057600080fd5b815161389081614427565b600060208284031215614ced57600080fd5b61389082614beb565b80516001600160801b038116811461437a57600080fd5b600080600080600060a08688031215614d2557600080fd5b614d2e86614cf6565b94506020860151935060408601519250614d4a60608701614cf6565b9150614d5860808701614cf6565b90509295509295909350565b600282810b9082900b03627fffff198112627fffff8213171561474157614741614718565b634e487b7160e01b600052600160045260246000fd5b60008060408385031215614db257600080fd5b505080516020909101519092909150565b6001600160a01b03959095168552600293840b60208601529190920b60408401526001600160801b03918216606084015216608082015260a00190565b60008060408385031215614e1357600080fd5b614e1c83614cf6565b9150614e2a60208401614cf6565b90509250929050565b60005b83811015614e4e578181015183820152602001614e36565b50506000910152565b60008251614e69818460208701614e33565b9190910192915050565b600060208284031215614e8557600080fd5b81516138908161443c565b600082601f830112614ea157600080fd5b81516020614eb1614919836148c2565b82815260c09283028501820192828201919087851115614ed057600080fd5b8387015b85811015614f555781818a031215614eec5760008081fd5b614ef4614845565b614efd82614beb565b8152614f0a868301614beb565b86820152604080830151614f1d816143e0565b9082015260608281015190820152608080830151614f3a81614427565b9082015260a082810151908201528452928401928101614ed4565b5090979650505050505050565b6000806040808486031215614f7657600080fd5b835167ffffffffffffffff80821115614f8e57600080fd5b818601915086601f830112614fa257600080fd5b81516020614fb2614919836148c2565b82815260069290921b8401810191818101908a841115614fd157600080fd5b948201945b838610156150215786868c031215614fee5760008081fd5b614ff661486e565b614fff87614beb565b81528387015161500e81614427565b8185015282529486019490820190614fd6565b9189015191975090945050508083111561503a57600080fd5b5050614a2585828601614e90565b60018060a01b03861681528460020b60208201528360020b60408201526001600160801b038316606082015260a06080820152600082518060a08401526150968160c0850160208701614e33565b601f01601f19169190910160c0019695505050505050565b6001600160801b03828116828216039080821115611d8157611d81614718565b6000600160ff1b82016150e3576150e3614718565b5060000390565b60008160020b627fffff19810361510357615103614718565b60000392915050565b60008261511b5761511b61475e565b500690565b600080600080600080600080610100898b03121561513d57600080fd5b61514689614cf6565b9750602089015180600f0b811461515c57600080fd5b60408a015160608b01519198509650945061517960808a016148e6565b935060a089015161518981614427565b60c08a015190935063ffffffff811681146151a357600080fd5b60e08a01519092506151b48161443c565b809150509295985092959890939650565b6001600160a01b03828116828216039080821115611d8157611d8161471856fea2646970667358221220a5e063e23d713318763d9950197b697ba823e1f55d9574784a0f286509227ea264736f6c63430008120033",
    "linkReferences": {},
    "deployedLinkReferences": {}
}